:020000040000FA
:100000000C9458000C9480000C9480000C94800098
:100010000C9480000C9480000C9480000C9463027B
:100020000C9480000C9480000C9480000C94800050
:100030000C9480000C9480000C9480000C94800040
:100040000C94C1010C9480000C9431020C940B02AE
:100050000C9480000C9480000C9480000C94800020
:100060000C9480000C948000000000002400270005
:100070002A000000000023002600290000000000E4
:10008000250028002B0004040404040404040202D4
:100090000202020203030303030301020408102007
:1000A0004080010204081020010204081020880288
:1000B00011241FBECFEFD8E0DEBFCDBF11E0A0E01E
:1000C000B1E0E4EAF9E002C005900D92A433B10773
:1000D000D9F721E0A4E3B1E001C01D92A13FB2072E
:1000E000E1F710E0C8E5D0E004C02197FE010E94CE
:1000F000CA04C735D107C9F70E9409030C94D0047C
:100100000C9400003FB7F89480913D0190913E011E
:10011000A0913F01B091400126B5A89B05C02F3F9B
:1001200019F00196A11DB11D3FBFBA2FA92F982F1D
:100130008827BC01CD01620F711D811D911D42E018
:10014000660F771F881F991F4A95D1F70895AF92C0
:10015000BF92CF92DF92EF92FF920F931F93CF93B4
:10016000DF936C017B018B01040F151FEB015E0116
:10017000AE18BF08C017D10759F06991D601ED91AB
:10018000FC910190F081E02DC6010995892B79F74A
:10019000C501DF91CF911F910F91FF90EF90DF90FC
:1001A000CF90BF90AF900895FC01538D448D252FC3
:1001B00030E0842F90E0821B930B541710F0CF9601
:1001C000089501970895FC01918D828D981761F033
:1001D000A28DAE0FBF2FB11D5D968C91928D9F5F4A
:1001E0009F73928F90E008958FEF9FEF0895FC0129
:1001F000918D828D981731F0828DE80FF11D858DDC
:1002000090E008958FEF9FEF0895FC01918D228D6E
:10021000892F90E0805C9F4F821B91098F739927F3
:10022000089581E491E00E94050121E0892B09F401
:1002300020E0822F089580E090E0892B29F00E9431
:10024000110181110C9400000895FC01A48DA80FE8
:10025000B92FB11DA35ABF4F2C91848D90E0019608
:100260008F739927848FA689B7892C93A089B18928
:100270008C91837080648C93938D848D981306C0C9
:100280000288F389E02D80818F7D80830895EF922D
:10029000FF920F931F93CF93DF93EC0181E0888F40
:1002A0009B8D8C8D98131AC0E889F989808185FF10
:1002B00015C09FB7F894EE89FF896083E889F989B2
:1002C00080818370806480839FBF81E090E0DF91B4
:1002D000CF911F910F91FF90EF900895F62E0B8D07
:1002E00010E00F5F1F4F0F731127E02E8C8D8E11C2
:1002F0000CC00FB607FCFACFE889F989808185FF29
:10030000F5CFCE010E942501F1CFEB8DEC0FFD2F33
:10031000F11DE35AFF4FF0829FB7F8940B8FEA89E3
:10032000FB8980818062CFCFCF93DF93EC01888DF2
:100330008823B9F0AA89BB89E889F9898C9185FD60
:1003400003C0808186FD0DC00FB607FCF7CF8C91EE
:1003500085FFF2CF808185FFEDCFCE010E94250180
:10036000E9CFDF91CF910895FC0101900020E9F7DA
:100370003197AF01481B590BBC0181E491E00C940B
:10038000A7001F920F920FB60F9211242F933F9345
:100390008F939F93AF93BF938091390190913A01CE
:1003A000A0913B01B0913C013091380123E0230F33
:1003B0002D3758F50196A11DB11D2093380180936A
:1003C000390190933A01A0933B01B0933C01809195
:1003D0003D0190913E01A0913F01B09140010196F5
:1003E000A11DB11D80933D0190933E01A0933F015B
:1003F000B0934001BF91AF919F918F913F912F9109
:100400000F900FBE0F901F90189526E8230F0296AD
:10041000A11DB11DD2CF1F920F920FB60F921124C2
:100420002F933F934F935F936F937F938F939F93FC
:10043000AF93BF93EF93FF9381E491E00E94250176
:10044000FF91EF91BF91AF919F918F917F916F91AC
:100450005F914F913F912F910F900FBE0F901F9082
:1004600018951F920F920FB60F9211242F938F930E
:100470009F93EF93FF93E0915101F091520180819E
:10048000E0915701F091580182FD1BC0908180914D
:100490005A018F5F8F7320915B01821741F0E091C9
:1004A0005A01F0E0EF5BFE4F958F80935A01FF9168
:1004B000EF919F918F912F910F900FBE0F901F90F2
:1004C00018958081F4CF1F920F920FB60F921124CE
:1004D0002F933F934F935F936F937F938F939F934C
:1004E000AF93BF93EF93FF93F0E0E0E00995FF91A6
:1004F000EF91BF91AF919F918F917F916F915F919C
:100500004F913F912F910F900FBE0F901F90189514
:10051000CF93DF93E1E4F1E01382128288EE93E05F
:10052000A0E0B0E084839583A683B78384E091E064
:100530009183808385EC90E09587848784EC90E0BC
:100540009787868780EC90E0918B808B81EC90E0A0
:10055000938B828B82EC90E0958B848B86EC90E081
:10056000978B868B118E128E138E148EEFE9F0E02E
:100570002491AEEDB1E014962C931497ECEAF0E0E0
:10058000E4911596EC9315978BE890E0FC0134917B
:10059000E32FF0E0EE0FFF1FE458FF4F4591549119
:1005A00017965C934E931697E8E9F0E0E491F0E03B
:1005B000EE0FFF1FEE58FF4F4591549119965C9333
:1005C0004E931897FC018491E82FF0E0EE0FFF1F87
:1005D000E859FF4FC591D4911B96DC93CE931A979F
:1005E00052961C92529789E499E51D969C938E939E
:1005F0001C97E8812E2B28831696ED91FC91179776
:10060000908114968C91809589238083DF91CF917E
:100610000895CF93DF93CDB7DEB7A1970FB6F894C7
:10062000DEBF0FBECDBF789484B5826084BD84B533
:10063000816084BD85B5826085BD85B5816085BDDD
:1006400080916E00816080936E0010928100809195
:10065000810082608093810080918100816080931D
:100660008100809180008160809380008091B10042
:1006700084608093B1008091B00081608093B0006D
:1006800080917A00846080937A0080917A00826001
:1006900080937A0080917A00816080937A008091C3
:1006A0007A00806880937A001092C100E091510135
:1006B000F091520182E08083E0914D01F0914E0172
:1006C0001082E0914F01F091500180E180831092FF
:1006D0005901E0915501F091560186E08083E09147
:1006E0005301F0915401808180618083E091530136
:1006F000F0915401808188608083E0915301F091F2
:100700005401808180688083E0915301F09154010D
:1007100080818F7D80839AE0492E512C612C712C31
:1007200020E0222E20E0322E0E9482004B015C014C
:1007300082E3C82ED12CE12CF12C0E948200681992
:1007400079098A099B09683E734081059105A8F3E0
:1007500021E0C21AD108E108F10888EE880E83E092
:10076000981EA11CB11CC114D104E104F10429F7A5
:10077000E091E801F091E90180819091E201892BFB
:100780008083E091E401F091E50180819091E201A4
:10079000892B80838BE290E00197F1F7E091E401EF
:1007A000F091E50190818091E20180958923808319
:1007B0008091F001882351F0E091E801F091E90186
:1007C00090818091E201809589238083E091E60108
:1007D000F091E70180819091E301892309F43FC002
:1007E00090E080E0BC0190E080E029E330E040E070
:1007F00050E00E94A80469017A01C901892B09F41B
:10080000A0C082E191E00E94B40119A28E010F5DA7
:100810001F4FC701B601A30192010E94A8046901FC
:100820007A01605DF80162938F01C114D104E10483
:10083000F10479F7309719F0CF010E94B4018EE1ED
:1008400091E00E94B4012114310409F46DCF0E949B
:100850001101882309F468CF0E94000065CF0E942F
:100860008200AB01BC018091EA019091EB01B0E004
:10087000A0E08855994EAF4FBF4F840F951FA61F1C
:10088000B71F8093EC019093ED01A093EE01B0931C
:10089000EF01E091E601F091E70180819091E301A1
:1008A000892381F40E9482000091EC011091ED01F6
:1008B0002091EE013091EF0106171707280739073D
:1008C00040F78ECF0E9482002091EA013091EB0127
:1008D000620F731F811D911D6093EC017093ED01F8
:1008E0008093EE019093EF01E091E601F091E70132
:1008F00080819091E301892381F00E948200009120
:10090000EC011091ED012091EE013091EF010617FD
:1009100017072807390740F763CF0E94820020910C
:10092000EA013091EB01A901455051092091EC01F8
:100930003091ED01FA01E21BF30BCF01860F971FF7
:1009400051CF83E291E00E94B40180E391E079CF3E
:10095000A1E21A2EAA1BBB1BFD010DC0AA1FBB1FC3
:10096000EE1FFF1FA217B307E407F50720F0A21B35
:10097000B30BE40BF50B661F771F881F991F1A94A2
:1009800069F760957095809590959B01AC01BD01CC
:10099000CF010895EE0FFF1F0590F491E02D09940B
:1009A000F894FFCF000000004701A700D400940195
:1009B0000501E300F70044697374616E6365203AD2
:1009C000200020636D0A00486F727320706F72748C
:0809D000C3A965000D0A000037
:107E0000112484B714BE81FFF0D085E080938100F7
:107E100082E08093C00088E18093C10086E0809377
:107E2000C20080E18093C4008EE0C9D0259A86E02C
:107E300020E33CEF91E0309385002093840096BBD3
:107E4000B09BFECF1D9AA8958150A9F7CC24DD24C4
:107E500088248394B5E0AB2EA1E19A2EF3E0BF2EE7
:107E6000A2D0813461F49FD0082FAFD0023811F036
:107E7000013811F484E001C083E08DD089C08234E0
:107E800011F484E103C0853419F485E0A6D080C0E4
:107E9000853579F488D0E82EFF2485D0082F10E0AE
:107EA000102F00270E291F29000F111F8ED06801E7
:107EB0006FC0863521F484E090D080E0DECF843638
:107EC00009F040C070D06FD0082F6DD080E0C81688
:107ED00080E7D80618F4F601B7BEE895C0E0D1E017
:107EE00062D089930C17E1F7F0E0CF16F0E7DF06D8
:107EF00018F0F601B7BEE89568D007B600FCFDCFD4
:107F0000A601A0E0B1E02C9130E011968C91119780
:107F100090E0982F8827822B932B1296FA010C0160
:107F200087BEE89511244E5F5F4FF1E0A038BF0790
:107F300051F7F601A7BEE89507B600FCFDCF97BE46
:107F4000E89526C08437B1F42ED02DD0F82E2BD052
:107F50003CD0F601EF2C8F010F5F1F4F84911BD097
:107F6000EA94F801C1F70894C11CD11CFA94CF0C13
:107F7000D11C0EC0853739F428D08EE10CD085E9AC
:107F80000AD08FE07ACF813511F488E018D01DD067
:107F900080E101D065CF982F8091C00085FFFCCF94
:107FA0009093C60008958091C00087FFFCCF809118
:107FB000C00084FD01C0A8958091C6000895E0E648
:107FC000F0E098E1908380830895EDDF803219F02E
:107FD00088E0F5DFFFCF84E1DECF1F93182FE3DFCA
:107FE0001150E9F7F2DF1F91089580E0E8DFEE27F6
:047FF000FF270994CA
:027FFE00040479
:00000001FF
