:100000000C9462000C948A000C948A000C948A0070
:100010000C948A000C948A000C948A000C948A0038
:100020000C948A000C948A000C948A000C948A0028
:100030000C948A000C948A000C948A000C948A0018
:100040000C94A0030C948A000C948A000C948A00EF
:100050000C948A000C948A000C948A000C948A00F8
:100060000C948A000C948A000000000024002700F1
:100070002A0000000000250028002B0000000000DE
:1000800023002600290004040404040404040202DA
:100090000202020203030303030301020408102007
:1000A0004080010204081020010204081020000012
:1000B0000008000201000003040700000000000027
:1000C0000000A40411241FBECFEFD8E0DEBFCDBFD7
:1000D00011E0A0E0B1E0E8EDF9E002C005900D927A
:1000E000AA33B107D9F721E0AAE3B1E001C01D921C
:1000F000AF35B207E1F710E0C2E6D0E004C02197C7
:10010000FE010E94E404C136D107C9F70E94EA0348
:100110000C94EA040C940000833081F028F48130C0
:1001200099F08230A9F008958730A9F08830C9F09D
:100130008430B1F4809180008F7D03C08091800075
:100140008F7780938000089584B58F7784BD08955C
:1001500084B58F7DFBCF8091B0008F778093B00006
:1001600008958091B0008F7DF9CFCF93DF93282F32
:1001700030E0F901E255FF4F8491F901E656FF4F57
:10018000D491F901EA57FF4FC491CC23A1F081111A
:100190000E948C00EC2FF0E0EE0FFF1FE458FF4FA1
:1001A000A591B491EC91ED2381E090E009F480E019
:1001B000DF91CF91089580E090E0FACF1F93CF9325
:1001C000DF93282F30E0F901E255FF4F8491F901C8
:1001D000E656FF4FD491F901EA57FF4FC491CC2363
:1001E000A9F0162F81110E948C00EC2FF0E0EE0F89
:1001F000FF1FEE58FF4FA591B4918FB7F894EC9183
:10020000111108C0D095DE23DC938FBFDF91CF9111
:100210001F910895DE2BF8CFCF93DF9390E0FC0180
:10022000E656FF4F24918A579F4FFC018491882303
:10023000D1F090E0880F991FFC01E859FF4FA5917C
:10024000B491FC01EE58FF4FC591D49161110EC0DD
:100250009FB7F8948C91E22FE0958E238C932881A0
:10026000E223E8839FBFDF91CF9108958FB7F89481
:10027000EC91E22BEC938FBFF6CF3FB7F8948091CF
:10028000430190914401A0914501B091460126B5EA
:10029000A89B05C02F3F19F00196A11DB11D3FBFBE
:1002A000BA2FA92F982F8827BC01CD01620F711D8D
:1002B000811D911D42E0660F771F881F991F4A9587
:1002C000D1F708958F929F92AF92BF92CF92DF9213
:1002D000EF92FF924B015C010E943D016B017C019A
:1002E0000E943D016C197D098E099F09683E73408B
:1002F00081059105A8F321E0821A9108A108B108AF
:1003000088EEC80E83E0D81EE11CF11C8114910414
:10031000A104B10429F7FF90EF90DF90CF90BF9038
:10032000AF909F908F900895AF92BF92CF92DF923F
:10033000EF92FF920F931F93CF93DF936C017B019A
:100340008B01040F151FEB015E01AE18BF08C0172B
:10035000D10759F06991D601ED91FC910190F0819E
:10036000E02DC6010995892B79F7C501DF91CF9161
:100370001F910F91FF90EF90DF90CF90BF90AF90C3
:100380000895089590E080E008958F929F92AF9233
:10039000BF920F931F93CF93DF93CDB7DEB7A19793
:1003A0000FB6F894DEBF0FBECDBF19A2423008F4DD
:1003B0004AE08E010F5D1F4F842E912CB12CA12C91
:1003C000A50194010E94C204E62FB901CA01EA30D6
:1003D00044F5E05DD801EE938D01232B242B252BD2
:1003E00079F790E080E0109769F0FD01019000201E
:1003F000E9F73197AF014A1B5B0BBD0187E491E040
:100400000E949401A1960FB6F894DEBF0FBECDBF37
:10041000DF91CF911F910F91BF90AF909F908F90E0
:100420000895E95CD7CFFC0101900020E9F73197EE
:10043000AF01481B590BBC0187E491E00C94940177
:10044000CF93DF93EC0160E08E810E94DE0061E0DB
:100450008E810E94DE0060E08E810E94DE008BE8CB
:1004600091E00197F1F7DF91CF910895CF92DF925C
:10047000EF92FF920F931F93CF93DF936C017C0158
:1004800087E0E80EF11CD0E0C0E0062F10E0B801D4
:100490000C2E02C0759567950A94E2F76170F7011A
:1004A00081917F010E94DE002196C430D10579F749
:1004B000C601DF91CF911F910F91FF90EF90DF90D8
:1004C000CF900C942002CF92DF92EF92FF920F9385
:1004D0001F93CF93DF93EC01F62E642F8C810E9443
:1004E000DE008D818F3F19F060E00E94DE000F2D4D
:1004F00010E08F8584FF25C06E0187E0C80ED11CF7
:10050000F12CE12CB8010E2C02C0759567950A9468
:10051000E2F76170F60181916F010E94DE00FFEF4A
:10052000EF1AFF0A88E0E816F10461F7CE01DF91C7
:10053000CF911F910F91FF90EF90DF90CF900C948F
:100540002002B80184E0759567958A95E1F7CE01A0
:100550000E9436026F2DCE01DF91CF911F910F9136
:10056000FF90EF90DF90CF900C94360240E0682F20
:1005700087E491E00C946302CF93DF93823029F4F7
:100580009091560198609093560180935A01109271
:100590005B0180E480935C0180E180935D0180E5F4
:1005A00080935E0161E080914B010E940C0180917B
:1005B0004C018F3F19F061E00E940C0161E08091D5
:1005C0004D010E940C01C7E4D1E09E012754314047
:1005D0008091560184FD0BC084E090E0219628179D
:1005E000390744F461E08E810E940C01EECF88E06F
:1005F00090E0F4CF8BE39DE00197F1F760E080910C
:100600004B010E94DE0060E080914D010E94DE00FF
:1006100080914C018F3F19F060E00E94DE008091D4
:10062000560184FD39C063E087E491E00E94360200
:10063000CBE4D6E4CE010197F1F763E087E491E0E3
:100640000E9436022197F1F763E087E491E00E946F
:10065000360283E592E00197F1F762E087E491E0EA
:100660000E9436028091560180620E94B60284E0A8
:10067000809357018CE00E94B60281E00E94B6028E
:100680008BE39FE10197F1F782E08093580186E0C8
:10069000DF91CF910C94B60280620E94B6028BE487
:1006A00096E40197F1F78091560180620E94B602AC
:1006B00083E592E00197F1F78091560180620E94F4
:1006C000B602D0CF90915A01691710F06FEF690F01
:1006D000E62FF0E0E95BFE4F9489890F80680C9467
:1006E000B60241E00E94630281E090E00895CF925B
:1006F000DF92EF92FF926C01990FEE08FF08F7FE70
:1007000016C041E06DE287E491E00E946302662733
:100710007727CB016C197D098E099F094AE00E9459
:10072000C5010196FF90EF90DF90CF9008954AE0C9
:10073000C701B601FF90EF90DF90CF900C94C501F8
:100740001F920F920FB60F9211242F933F938F9306
:100750009F93AF93BF9380913F0190914001A091EF
:100760004101B091420130913E0123E0230F2D372A
:1007700058F50196A11DB11D20933E0180933F01C4
:1007800090934001A0934101B093420180914301B5
:1007900090914401A0914501B09146010196A11D9F
:1007A000B11D8093430190934401A0934501B09300
:1007B0004601BF91AF919F918F913F912F910F90E3
:1007C0000FBE0F901F90189526E8230F0296A11DCB
:1007D000B11DD2CF789484B5826084BD84B5816028
:1007E00084BD85B5826085BD85B5816085BD8091FC
:1007F0006E00816080936E00109281008091810074
:10080000826080938100809181008160809381006B
:10081000809180008160809380008091B10084602D
:100820008093B1008091B00081608093B00080918E
:100830007A00846080937A0080917A00826080934D
:100840007A0080917A00816080937A0080917A00AA
:10085000806880937A001092C10082E00E94BC02FE
:1008600060E086E00E940C0160E087E00E940C01DD
:100870008CE091E00E94130260ED77E080E090E070
:100880000E946201C0E0D0E060E080E00E9462036C
:100890008AE191E00E94130260E08EE00E94620310
:1008A00080913C0190913D010E94770361E080E0DE
:1008B0000E94620389E291E00E94130261E08FE0EE
:1008C0000E94620380913A0190913B010E9477035C
:1008D00086E00E94B5000197B1F480913C019091AF
:1008E0003D01833091057CF4019690933D01809306
:1008F0003C0110923B0110923A0164EF71E080E0FC
:1009000090E00E94620187E00E94B5000197B1F477
:1009100080913A0190913B01833091057CF40196DE
:1009200090933B0180933A0110923D0110923C015B
:1009300064EF71E080E090E00E946201209709F48A
:10094000A3CF0E940000A0CFE7E4F1E0138212825F
:1009500084E091E0918380838CE084838FEF8583B2
:100960008BE0868385E0878384E0808783E08187CE
:1009700082E082871386148615861686178681E0A4
:100980000C94BC02A1E21A2EAA1BBB1BFD010DC0D8
:10099000AA1FBB1FEE1FFF1FA217B307E407F5072F
:1009A00020F0A21BB30BE40BF50B661F771F881F0B
:1009B000991F1A9469F760957095809590959B01A1
:1009C000AC01BD01CF010895EE0FFF1F0590F4911A
:0809D000E02D0994F894FFCF1B
:1009D8000000000071039401C201C1012D2D4C4398
:1009E800442053746172742D2D004E627220642766
:1009F8006176616E63653A20004E627220646520FC
:0A0A0800726563756C653A2000000A
:00000001FF
